{
  "contractName": "NftTest",
  "abi": [
    {
      "inputs": [
        {
          "internalType": "string",
          "name": "_name",
          "type": "string"
        },
        {
          "internalType": "string",
          "name": "_symbol",
          "type": "string"
        },
        {
          "internalType": "string",
          "name": "_initBaseURI",
          "type": "string"
        }
      ],
      "stateMutability": "nonpayable",
      "type": "constructor"
    },
    {
      "anonymous": false,
      "inputs": [
        {
          "indexed": true,
          "internalType": "address",
          "name": "owner",
          "type": "address"
        },
        {
          "indexed": true,
          "internalType": "address",
          "name": "approved",
          "type": "address"
        },
        {
          "indexed": true,
          "internalType": "uint256",
          "name": "tokenId",
          "type": "uint256"
        }
      ],
      "name": "Approval",
      "type": "event"
    },
    {
      "anonymous": false,
      "inputs": [
        {
          "indexed": true,
          "internalType": "address",
          "name": "owner",
          "type": "address"
        },
        {
          "indexed": true,
          "internalType": "address",
          "name": "operator",
          "type": "address"
        },
        {
          "indexed": false,
          "internalType": "bool",
          "name": "approved",
          "type": "bool"
        }
      ],
      "name": "ApprovalForAll",
      "type": "event"
    },
    {
      "anonymous": false,
      "inputs": [
        {
          "indexed": true,
          "internalType": "address",
          "name": "previousOwner",
          "type": "address"
        },
        {
          "indexed": true,
          "internalType": "address",
          "name": "newOwner",
          "type": "address"
        }
      ],
      "name": "OwnershipTransferred",
      "type": "event"
    },
    {
      "anonymous": false,
      "inputs": [
        {
          "indexed": true,
          "internalType": "address",
          "name": "from",
          "type": "address"
        },
        {
          "indexed": true,
          "internalType": "address",
          "name": "to",
          "type": "address"
        },
        {
          "indexed": true,
          "internalType": "uint256",
          "name": "tokenId",
          "type": "uint256"
        }
      ],
      "name": "Transfer",
      "type": "event"
    },
    {
      "inputs": [
        {
          "internalType": "address",
          "name": "to",
          "type": "address"
        },
        {
          "internalType": "uint256",
          "name": "tokenId",
          "type": "uint256"
        }
      ],
      "name": "approve",
      "outputs": [],
      "stateMutability": "nonpayable",
      "type": "function"
    },
    {
      "inputs": [
        {
          "internalType": "address",
          "name": "owner",
          "type": "address"
        }
      ],
      "name": "balanceOf",
      "outputs": [
        {
          "internalType": "uint256",
          "name": "",
          "type": "uint256"
        }
      ],
      "stateMutability": "view",
      "type": "function",
      "constant": true
    },
    {
      "inputs": [],
      "name": "baseExtension",
      "outputs": [
        {
          "internalType": "string",
          "name": "",
          "type": "string"
        }
      ],
      "stateMutability": "view",
      "type": "function",
      "constant": true
    },
    {
      "inputs": [],
      "name": "baseURI",
      "outputs": [
        {
          "internalType": "string",
          "name": "",
          "type": "string"
        }
      ],
      "stateMutability": "view",
      "type": "function",
      "constant": true
    },
    {
      "inputs": [],
      "name": "cost",
      "outputs": [
        {
          "internalType": "uint256",
          "name": "",
          "type": "uint256"
        }
      ],
      "stateMutability": "view",
      "type": "function",
      "constant": true
    },
    {
      "inputs": [
        {
          "internalType": "uint256",
          "name": "tokenId",
          "type": "uint256"
        }
      ],
      "name": "getApproved",
      "outputs": [
        {
          "internalType": "address",
          "name": "",
          "type": "address"
        }
      ],
      "stateMutability": "view",
      "type": "function",
      "constant": true
    },
    {
      "inputs": [
        {
          "internalType": "address",
          "name": "owner",
          "type": "address"
        },
        {
          "internalType": "address",
          "name": "operator",
          "type": "address"
        }
      ],
      "name": "isApprovedForAll",
      "outputs": [
        {
          "internalType": "bool",
          "name": "",
          "type": "bool"
        }
      ],
      "stateMutability": "view",
      "type": "function",
      "constant": true
    },
    {
      "inputs": [],
      "name": "maxMintAmount",
      "outputs": [
        {
          "internalType": "uint256",
          "name": "",
          "type": "uint256"
        }
      ],
      "stateMutability": "view",
      "type": "function",
      "constant": true
    },
    {
      "inputs": [],
      "name": "maxSupply",
      "outputs": [
        {
          "internalType": "uint256",
          "name": "",
          "type": "uint256"
        }
      ],
      "stateMutability": "view",
      "type": "function",
      "constant": true
    },
    {
      "inputs": [],
      "name": "name",
      "outputs": [
        {
          "internalType": "string",
          "name": "",
          "type": "string"
        }
      ],
      "stateMutability": "view",
      "type": "function",
      "constant": true
    },
    {
      "inputs": [],
      "name": "owner",
      "outputs": [
        {
          "internalType": "address",
          "name": "",
          "type": "address"
        }
      ],
      "stateMutability": "view",
      "type": "function",
      "constant": true
    },
    {
      "inputs": [
        {
          "internalType": "uint256",
          "name": "tokenId",
          "type": "uint256"
        }
      ],
      "name": "ownerOf",
      "outputs": [
        {
          "internalType": "address",
          "name": "",
          "type": "address"
        }
      ],
      "stateMutability": "view",
      "type": "function",
      "constant": true
    },
    {
      "inputs": [],
      "name": "paused",
      "outputs": [
        {
          "internalType": "bool",
          "name": "",
          "type": "bool"
        }
      ],
      "stateMutability": "view",
      "type": "function",
      "constant": true
    },
    {
      "inputs": [],
      "name": "renounceOwnership",
      "outputs": [],
      "stateMutability": "nonpayable",
      "type": "function"
    },
    {
      "inputs": [
        {
          "internalType": "address",
          "name": "from",
          "type": "address"
        },
        {
          "internalType": "address",
          "name": "to",
          "type": "address"
        },
        {
          "internalType": "uint256",
          "name": "tokenId",
          "type": "uint256"
        }
      ],
      "name": "safeTransferFrom",
      "outputs": [],
      "stateMutability": "nonpayable",
      "type": "function"
    },
    {
      "inputs": [
        {
          "internalType": "address",
          "name": "from",
          "type": "address"
        },
        {
          "internalType": "address",
          "name": "to",
          "type": "address"
        },
        {
          "internalType": "uint256",
          "name": "tokenId",
          "type": "uint256"
        },
        {
          "internalType": "bytes",
          "name": "_data",
          "type": "bytes"
        }
      ],
      "name": "safeTransferFrom",
      "outputs": [],
      "stateMutability": "nonpayable",
      "type": "function"
    },
    {
      "inputs": [
        {
          "internalType": "address",
          "name": "operator",
          "type": "address"
        },
        {
          "internalType": "bool",
          "name": "approved",
          "type": "bool"
        }
      ],
      "name": "setApprovalForAll",
      "outputs": [],
      "stateMutability": "nonpayable",
      "type": "function"
    },
    {
      "inputs": [
        {
          "internalType": "bytes4",
          "name": "interfaceId",
          "type": "bytes4"
        }
      ],
      "name": "supportsInterface",
      "outputs": [
        {
          "internalType": "bool",
          "name": "",
          "type": "bool"
        }
      ],
      "stateMutability": "view",
      "type": "function",
      "constant": true
    },
    {
      "inputs": [],
      "name": "symbol",
      "outputs": [
        {
          "internalType": "string",
          "name": "",
          "type": "string"
        }
      ],
      "stateMutability": "view",
      "type": "function",
      "constant": true
    },
    {
      "inputs": [
        {
          "internalType": "uint256",
          "name": "index",
          "type": "uint256"
        }
      ],
      "name": "tokenByIndex",
      "outputs": [
        {
          "internalType": "uint256",
          "name": "",
          "type": "uint256"
        }
      ],
      "stateMutability": "view",
      "type": "function",
      "constant": true
    },
    {
      "inputs": [
        {
          "internalType": "address",
          "name": "owner",
          "type": "address"
        },
        {
          "internalType": "uint256",
          "name": "index",
          "type": "uint256"
        }
      ],
      "name": "tokenOfOwnerByIndex",
      "outputs": [
        {
          "internalType": "uint256",
          "name": "",
          "type": "uint256"
        }
      ],
      "stateMutability": "view",
      "type": "function",
      "constant": true
    },
    {
      "inputs": [],
      "name": "totalSupply",
      "outputs": [
        {
          "internalType": "uint256",
          "name": "",
          "type": "uint256"
        }
      ],
      "stateMutability": "view",
      "type": "function",
      "constant": true
    },
    {
      "inputs": [
        {
          "internalType": "address",
          "name": "from",
          "type": "address"
        },
        {
          "internalType": "address",
          "name": "to",
          "type": "address"
        },
        {
          "internalType": "uint256",
          "name": "tokenId",
          "type": "uint256"
        }
      ],
      "name": "transferFrom",
      "outputs": [],
      "stateMutability": "nonpayable",
      "type": "function"
    },
    {
      "inputs": [
        {
          "internalType": "address",
          "name": "newOwner",
          "type": "address"
        }
      ],
      "name": "transferOwnership",
      "outputs": [],
      "stateMutability": "nonpayable",
      "type": "function"
    },
    {
      "inputs": [
        {
          "internalType": "address",
          "name": "_to",
          "type": "address"
        },
        {
          "internalType": "uint256",
          "name": "_mintAmount",
          "type": "uint256"
        }
      ],
      "name": "mint",
      "outputs": [],
      "stateMutability": "payable",
      "type": "function",
      "payable": true
    },
    {
      "inputs": [
        {
          "internalType": "address",
          "name": "_owner",
          "type": "address"
        }
      ],
      "name": "walletOfOwner",
      "outputs": [
        {
          "internalType": "uint256[]",
          "name": "",
          "type": "uint256[]"
        }
      ],
      "stateMutability": "view",
      "type": "function",
      "constant": true
    },
    {
      "inputs": [
        {
          "internalType": "uint256",
          "name": "tokenId",
          "type": "uint256"
        }
      ],
      "name": "tokenURI",
      "outputs": [
        {
          "internalType": "string",
          "name": "",
          "type": "string"
        }
      ],
      "stateMutability": "view",
      "type": "function",
      "constant": true
    },
    {
      "inputs": [
        {
          "internalType": "uint256",
          "name": "_newCost",
          "type": "uint256"
        }
      ],
      "name": "setCost",
      "outputs": [],
      "stateMutability": "nonpayable",
      "type": "function"
    },
    {
      "inputs": [
        {
          "internalType": "uint256",
          "name": "_newmaxMintAmount",
          "type": "uint256"
        }
      ],
      "name": "setmaxMintAmount",
      "outputs": [],
      "stateMutability": "nonpayable",
      "type": "function"
    },
    {
      "inputs": [
        {
          "internalType": "string",
          "name": "_newBaseURI",
          "type": "string"
        }
      ],
      "name": "setBaseURI",
      "outputs": [],
      "stateMutability": "nonpayable",
      "type": "function"
    },
    {
      "inputs": [
        {
          "internalType": "string",
          "name": "_newBaseExtension",
          "type": "string"
        }
      ],
      "name": "setBaseExtension",
      "outputs": [],
      "stateMutability": "nonpayable",
      "type": "function"
    },
    {
      "inputs": [
        {
          "internalType": "bool",
          "name": "_state",
          "type": "bool"
        }
      ],
      "name": "pause",
      "outputs": [],
      "stateMutability": "nonpayable",
      "type": "function"
    },
    {
      "inputs": [],
      "name": "withdraw",
      "outputs": [],
      "stateMutability": "payable",
      "type": "function",
      "payable": true
    }
  ],
  "bytecode": "0x60806040526040518060400160405280600581526020017f2e6a736f6e000000000000000000000000000000000000000000000000000000815250600c90805190602001906200005192919062000ddb565b5066470de4df820000600d55612710600e55600a600f556000601060006101000a81548160ff0219169083151502179055503480156200009057600080fd5b5060405162005786380380620057868339818101604052810190620000b6919062000f52565b82828160009080519060200190620000d092919062000ddb565b508060019080519060200190620000e992919062000ddb565b5050506200010c620001006200013960201b60201c565b6200014160201b60201c565b6200011d816200020760201b60201c565b6200013033600a620002b260201b60201c565b505050620016f0565b600033905090565b6000600a60009054906101000a900473ffffffffffffffffffffffffffffffffffffffff16905081600a60006101000a81548173ffffffffffffffffffffffffffffffffffffffff021916908373ffffffffffffffffffffffffffffffffffffffff1602179055508173ffffffffffffffffffffffffffffffffffffffff168173ffffffffffffffffffffffffffffffffffffffff167f8be0079c531659141344cd1fd0a4f28419497f9722a3daafe3b4186f6b6457e060405160405180910390a35050565b620002176200013960201b60201c565b73ffffffffffffffffffffffffffffffffffffffff166200023d620003bc60201b60201c565b73ffffffffffffffffffffffffffffffffffffffff161462000296576040517f08c379a00000000000000000000000000000000000000000000000000000000081526004016200028d906200120d565b60405180910390fd5b80600b9080519060200190620002ae92919062000ddb565b5050565b6000620002c4620003e660201b60201c565b9050601060009054906101000a900460ff1615620002e157600080fd5b60008211620002ef57600080fd5b600f54821115620002ff57600080fd5b600e548282620003109190620012bb565b11156200031c57600080fd5b6200032c620003bc60201b60201c565b73ffffffffffffffffffffffffffffffffffffffff163373ffffffffffffffffffffffffffffffffffffffff1614620003725781600d54163410156200037157600080fd5b5b6000600190505b828111620003b657620003a0848284620003949190620012bb565b620003f360201b60201c565b8080620003ad906200145f565b91505062000379565b50505050565b6000600a60009054906101000a900473ffffffffffffffffffffffffffffffffffffffff16905090565b6000600880549050905090565b620004158282604051806020016040528060008152506200041960201b60201c565b5050565b6200042b83836200048760201b60201c565b6200044060008484846200066d60201b60201c565b62000482576040517f08c379a0000000000000000000000000000000000000000000000000000000008152600401620004799062001185565b60405180910390fd5b505050565b600073ffffffffffffffffffffffffffffffffffffffff168273ffffffffffffffffffffffffffffffffffffffff161415620004fa576040517f08c379a0000000000000000000000000000000000000000000000000000000008152600401620004f190620011eb565b60405180910390fd5b6200050b816200082760201b60201c565b156200054e576040517f08c379a00000000000000000000000000000000000000000000000000000000081526004016200054590620011a7565b60405180910390fd5b62000562600083836200089360201b60201c565b6001600360008473ffffffffffffffffffffffffffffffffffffffff1673ffffffffffffffffffffffffffffffffffffffff1681526020019081526020016000206000828254620005b49190620012bb565b92505081905550816002600083815260200190815260200160002060006101000a81548173ffffffffffffffffffffffffffffffffffffffff021916908373ffffffffffffffffffffffffffffffffffffffff160217905550808273ffffffffffffffffffffffffffffffffffffffff16600073ffffffffffffffffffffffffffffffffffffffff167fddf252ad1be2c89b69c2b068fc378daa952ba7f163c4a11628f55a4df523b3ef60405160405180910390a45050565b60006200069b8473ffffffffffffffffffffffffffffffffffffffff16620009da60201b620019391760201c565b156200081a578373ffffffffffffffffffffffffffffffffffffffff1663150b7a02620006cd6200013960201b60201c565b8786866040518563ffffffff1660e01b8152600401620006f1949392919062001131565b602060405180830381600087803b1580156200070c57600080fd5b505af19250505080156200074057506040513d601f19601f820116820180604052508101906200073d919062000f20565b60015b620007c9573d806000811462000773576040519150601f19603f3d011682016040523d82523d6000602084013e62000778565b606091505b50600081511415620007c1576040517f08c379a0000000000000000000000000000000000000000000000000000000008152600401620007b89062001185565b60405180910390fd5b805181602001fd5b63150b7a0260e01b7bffffffffffffffffffffffffffffffffffffffffffffffffffffffff1916817bffffffffffffffffffffffffffffffffffffffffffffffffffffffff1916149150506200081f565b600190505b949350505050565b60008073ffffffffffffffffffffffffffffffffffffffff166002600084815260200190815260200160002060009054906101000a900473ffffffffffffffffffffffffffffffffffffffff1673ffffffffffffffffffffffffffffffffffffffff1614159050919050565b620008ab838383620009ed60201b6200194c1760201c565b600073ffffffffffffffffffffffffffffffffffffffff168373ffffffffffffffffffffffffffffffffffffffff161415620008f857620008f281620009f260201b60201c565b62000940565b8173ffffffffffffffffffffffffffffffffffffffff168373ffffffffffffffffffffffffffffffffffffffff16146200093f576200093e838262000a3b60201b60201c565b5b5b600073ffffffffffffffffffffffffffffffffffffffff168273ffffffffffffffffffffffffffffffffffffffff1614156200098d57620009878162000bb860201b60201c565b620009d5565b8273ffffffffffffffffffffffffffffffffffffffff168273ffffffffffffffffffffffffffffffffffffffff1614620009d457620009d3828262000c9460201b60201c565b5b5b505050565b600080823b905060008111915050919050565b505050565b6008805490506009600083815260200190815260200160002081905550600881908060018154018082558091505060019003906000526020600020016000909190919091505550565b6000600162000a558462000d2060201b620011741760201c565b62000a61919062001318565b905060006007600084815260200190815260200160002054905081811462000b47576000600660008673ffffffffffffffffffffffffffffffffffffffff1673ffffffffffffffffffffffffffffffffffffffff168152602001908152602001600020600084815260200190815260200160002054905080600660008773ffffffffffffffffffffffffffffffffffffffff1673ffffffffffffffffffffffffffffffffffffffff168152602001908152602001600020600084815260200190815260200160002081905550816007600083815260200190815260200160002081905550505b6007600084815260200190815260200160002060009055600660008573ffffffffffffffffffffffffffffffffffffffff1673ffffffffffffffffffffffffffffffffffffffff16815260200190815260200160002060008381526020019081526020016000206000905550505050565b6000600160088054905062000bce919062001318565b905060006009600084815260200190815260200160002054905060006008838154811062000c015762000c006200153a565b5b90600052602060002001549050806008838154811062000c265762000c256200153a565b5b90600052602060002001819055508160096000838152602001908152602001600020819055506009600085815260200190815260200160002060009055600880548062000c785762000c776200150b565b5b6001900381819060005260206000200160009055905550505050565b600062000cac8362000d2060201b620011741760201c565b905081600660008573ffffffffffffffffffffffffffffffffffffffff1673ffffffffffffffffffffffffffffffffffffffff168152602001908152602001600020600083815260200190815260200160002081905550806007600084815260200190815260200160002081905550505050565b60008073ffffffffffffffffffffffffffffffffffffffff168273ffffffffffffffffffffffffffffffffffffffff16141562000d94576040517f08c379a000000000000000000000000000000000000000000000000000000000815260040162000d8b90620011c9565b60405180910390fd5b600360008373ffffffffffffffffffffffffffffffffffffffff1673ffffffffffffffffffffffffffffffffffffffff168152602001908152602001600020549050919050565b82805462000de990620013f3565b90600052602060002090601f01602090048101928262000e0d576000855562000e59565b82601f1062000e2857805160ff191683800117855562000e59565b8280016001018555821562000e59579182015b8281111562000e5857825182559160200191906001019062000e3b565b5b50905062000e68919062000e6c565b5090565b5b8082111562000e8757600081600090555060010162000e6d565b5090565b600062000ea262000e9c8462001258565b6200122f565b90508281526020810184848401111562000ec15762000ec06200159d565b5b62000ece848285620013bd565b509392505050565b60008151905062000ee781620016d6565b92915050565b600082601f83011262000f055762000f0462001598565b5b815162000f1784826020860162000e8b565b91505092915050565b60006020828403121562000f395762000f38620015a7565b5b600062000f498482850162000ed6565b91505092915050565b60008060006060848603121562000f6e5762000f6d620015a7565b5b600084015167ffffffffffffffff81111562000f8f5762000f8e620015a2565b5b62000f9d8682870162000eed565b935050602084015167ffffffffffffffff81111562000fc15762000fc0620015a2565b5b62000fcf8682870162000eed565b925050604084015167ffffffffffffffff81111562000ff35762000ff2620015a2565b5b620010018682870162000eed565b9150509250925092565b620010168162001353565b82525050565b600062001029826200128e565b62001035818562001299565b935062001047818560208601620013bd565b6200105281620015ac565b840191505092915050565b60006200106c603283620012aa565b91506200107982620015bd565b604082019050919050565b600062001093601c83620012aa565b9150620010a0826200160c565b602082019050919050565b6000620010ba602a83620012aa565b9150620010c78262001635565b604082019050919050565b6000620010e1602083620012aa565b9150620010ee8262001684565b602082019050919050565b600062001108602083620012aa565b91506200111582620016ad565b602082019050919050565b6200112b81620013b3565b82525050565b60006080820190506200114860008301876200100b565b6200115760208301866200100b565b62001166604083018562001120565b81810360608301526200117a81846200101c565b905095945050505050565b60006020820190508181036000830152620011a0816200105d565b9050919050565b60006020820190508181036000830152620011c28162001084565b9050919050565b60006020820190508181036000830152620011e481620010ab565b9050919050565b600060208201905081810360008301526200120681620010d2565b9050919050565b600060208201905081810360008301526200122881620010f9565b9050919050565b60006200123b6200124e565b905062001249828262001429565b919050565b6000604051905090565b600067ffffffffffffffff82111562001276576200127562001569565b5b6200128182620015ac565b9050602081019050919050565b600081519050919050565b600082825260208201905092915050565b600082825260208201905092915050565b6000620012c882620013b3565b9150620012d583620013b3565b9250827fffffffffffffffffffffffffffffffffffffffffffffffffffffffffffffffff038211156200130d576200130c620014ad565b5b828201905092915050565b60006200132582620013b3565b91506200133283620013b3565b925082821015620013485762001347620014ad565b5b828203905092915050565b6000620013608262001393565b9050919050565b60007fffffffff0000000000000000000000000000000000000000000000000000000082169050919050565b600073ffffffffffffffffffffffffffffffffffffffff82169050919050565b6000819050919050565b60005b83811015620013dd578082015181840152602081019050620013c0565b83811115620013ed576000848401525b50505050565b600060028204905060018216806200140c57607f821691505b60208210811415620014235762001422620014dc565b5b50919050565b6200143482620015ac565b810181811067ffffffffffffffff8211171562001456576200145562001569565b5b80604052505050565b60006200146c82620013b3565b91507fffffffffffffffffffffffffffffffffffffffffffffffffffffffffffffffff821415620014a257620014a1620014ad565b5b600182019050919050565b7f4e487b7100000000000000000000000000000000000000000000000000000000600052601160045260246000fd5b7f4e487b7100000000000000000000000000000000000000000000000000000000600052602260045260246000fd5b7f4e487b7100000000000000000000000000000000000000000000000000000000600052603160045260246000fd5b7f4e487b7100000000000000000000000000000000000000000000000000000000600052603260045260246000fd5b7f4e487b7100000000000000000000000000000000000000000000000000000000600052604160045260246000fd5b600080fd5b600080fd5b600080fd5b600080fd5b6000601f19601f8301169050919050565b7f4552433732313a207472616e7366657220746f206e6f6e20455243373231526560008201527f63656976657220696d706c656d656e7465720000000000000000000000000000602082015250565b7f4552433732313a20746f6b656e20616c7265616479206d696e74656400000000600082015250565b7f4552433732313a2062616c616e636520717565727920666f7220746865207a6560008201527f726f206164647265737300000000000000000000000000000000000000000000602082015250565b7f4552433732313a206d696e7420746f20746865207a65726f2061646472657373600082015250565b7f4f776e61626c653a2063616c6c6572206973206e6f7420746865206f776e6572600082015250565b620016e18162001367565b8114620016ed57600080fd5b50565b61408680620017006000396000f3fe6080604052600436106101ee5760003560e01c806355f804b31161010d57806395d89b41116100a0578063c87b56dd1161006f578063c87b56dd146106cf578063d5abeb011461070c578063da3ef23f14610737578063e985e9c514610760578063f2fde38b1461079d576101ee565b806395d89b4114610627578063a22cb46514610652578063b88d4fde1461067b578063c6682862146106a4576101ee565b806370a08231116100dc57806370a082311461057f578063715018a6146105bc5780637f00c7a6146105d35780638da5cb5b146105fc576101ee565b806355f804b3146104c35780635c975abb146104ec5780636352211e146105175780636c0360eb14610554576101ee565b806323b872dd1161018557806342842e0e1161015457806342842e0e146103f7578063438b63001461042057806344a0d68a1461045d5780634f6ccce714610486576101ee565b806323b872dd1461036b5780632f745c59146103945780633ccfd60b146103d157806340c10f19146103db576101ee565b8063095ea7b3116101c1578063095ea7b3146102c157806313faede6146102ea57806318160ddd14610315578063239c70ae14610340576101ee565b806301ffc9a7146101f357806302329a291461023057806306fdde0314610259578063081812fc14610284575b600080fd5b3480156101ff57600080fd5b5061021a60048036038101906102159190612ded565b6107c6565b60405161022791906133c1565b60405180910390f35b34801561023c57600080fd5b5061025760048036038101906102529190612dc0565b610840565b005b34801561026557600080fd5b5061026e6108d9565b60405161027b91906133dc565b60405180910390f35b34801561029057600080fd5b506102ab60048036038101906102a69190612e90565b61096b565b6040516102b89190613338565b60405180910390f35b3480156102cd57600080fd5b506102e860048036038101906102e39190612d80565b6109f0565b005b3480156102f657600080fd5b506102ff610b08565b60405161030c919061363e565b60405180910390f35b34801561032157600080fd5b5061032a610b0e565b604051610337919061363e565b60405180910390f35b34801561034c57600080fd5b50610355610b1b565b604051610362919061363e565b60405180910390f35b34801561037757600080fd5b50610392600480360381019061038d9190612c6a565b610b21565b005b3480156103a057600080fd5b506103bb60048036038101906103b69190612d80565b610b81565b6040516103c8919061363e565b60405180910390f35b6103d9610c26565b005b6103f560048036038101906103f09190612d80565b610ce2565b005b34801561040357600080fd5b5061041e60048036038101906104199190612c6a565b610dc6565b005b34801561042c57600080fd5b5061044760048036038101906104429190612bfd565b610de6565b604051610454919061339f565b60405180910390f35b34801561046957600080fd5b50610484600480360381019061047f9190612e90565b610e94565b005b34801561049257600080fd5b506104ad60048036038101906104a89190612e90565b610f1a565b6040516104ba919061363e565b60405180910390f35b3480156104cf57600080fd5b506104ea60048036038101906104e59190612e47565b610f8b565b005b3480156104f857600080fd5b50610501611021565b60405161050e91906133c1565b60405180910390f35b34801561052357600080fd5b5061053e60048036038101906105399190612e90565b611034565b60405161054b9190613338565b60405180910390f35b34801561056057600080fd5b506105696110e6565b60405161057691906133dc565b60405180910390f35b34801561058b57600080fd5b506105a660048036038101906105a19190612bfd565b611174565b6040516105b3919061363e565b60405180910390f35b3480156105c857600080fd5b506105d161122c565b005b3480156105df57600080fd5b506105fa60048036038101906105f59190612e90565b6112b4565b005b34801561060857600080fd5b5061061161133a565b60405161061e9190613338565b60405180910390f35b34801561063357600080fd5b5061063c611364565b60405161064991906133dc565b60405180910390f35b34801561065e57600080fd5b5061067960048036038101906106749190612d40565b6113f6565b005b34801561068757600080fd5b506106a2600480360381019061069d9190612cbd565b611577565b005b3480156106b057600080fd5b506106b96115d9565b6040516106c691906133dc565b60405180910390f35b3480156106db57600080fd5b506106f660048036038101906106f19190612e90565b611667565b60405161070391906133dc565b60405180910390f35b34801561071857600080fd5b50610721611711565b60405161072e919061363e565b60405180910390f35b34801561074357600080fd5b5061075e60048036038101906107599190612e47565b611717565b005b34801561076c57600080fd5b5061078760048036038101906107829190612c2a565b6117ad565b60405161079491906133c1565b60405180910390f35b3480156107a957600080fd5b506107c460048036038101906107bf9190612bfd565b611841565b005b60007f780e9d63000000000000000000000000000000000000000000000000000000007bffffffffffffffffffffffffffffffffffffffffffffffffffffffff1916827bffffffffffffffffffffffffffffffffffffffffffffffffffffffff19161480610839575061083882611951565b5b9050919050565b610848611a33565b73ffffffffffffffffffffffffffffffffffffffff1661086661133a565b73ffffffffffffffffffffffffffffffffffffffff16146108bc576040517f08c379a00000000000000000000000000000000000000000000000000000000081526004016108b39061357e565b60405180910390fd5b80601060006101000a81548160ff02191690831515021790555050565b6060600080546108e8906138e2565b80601f0160208091040260200160405190810160405280929190818152602001828054610914906138e2565b80156109615780601f1061093657610100808354040283529160200191610961565b820191906000526020600020905b81548152906001019060200180831161094457829003601f168201915b5050505050905090565b600061097682611a3b565b6109b5576040517f08c379a00000000000000000000000000000000000000000000000000000000081526004016109ac9061355e565b60405180910390fd5b6004600083815260200190815260200160002060009054906101000a900473ffffffffffffffffffffffffffffffffffffffff169050919050565b60006109fb82611034565b90508073ffffffffffffffffffffffffffffffffffffffff168373ffffffffffffffffffffffffffffffffffffffff161415610a6c576040517f08c379a0000000000000000000000000000000000000000000000000000000008152600401610a63906135de565b60405180910390fd5b8073ffffffffffffffffffffffffffffffffffffffff16610a8b611a33565b73ffffffffffffffffffffffffffffffffffffffff161480610aba5750610ab981610ab4611a33565b6117ad565b5b610af9576040517f08c379a0000000000000000000000000000000000000000000000000000000008152600401610af0906134de565b60405180910390fd5b610b038383611aa7565b505050565b600d5481565b6000600880549050905090565b600f5481565b610b32610b2c611a33565b82611b60565b610b71576040517f08c379a0000000000000000000000000000000000000000000000000000000008152600401610b68906135fe565b60405180910390fd5b610b7c838383611c3e565b505050565b6000610b8c83611174565b8210610bcd576040517f08c379a0000000000000000000000000000000000000000000000000000000008152600401610bc4906133fe565b60405180910390fd5b600660008473ffffffffffffffffffffffffffffffffffffffff1673ffffffffffffffffffffffffffffffffffffffff168152602001908152602001600020600083815260200190815260200160002054905092915050565b610c2e611a33565b73ffffffffffffffffffffffffffffffffffffffff16610c4c61133a565b73ffffffffffffffffffffffffffffffffffffffff1614610ca2576040517f08c379a0000000000000000000000000000000000000000000000000000000008152600401610c999061357e565b60405180910390fd5b3373ffffffffffffffffffffffffffffffffffffffff166108fc479081150290604051600060405180830381858888f19350505050610ce057600080fd5b565b6000610cec610b0e565b9050601060009054906101000a900460ff1615610d0857600080fd5b60008211610d1557600080fd5b600f54821115610d2457600080fd5b600e548282610d339190613771565b1115610d3e57600080fd5b610d4661133a565b73ffffffffffffffffffffffffffffffffffffffff163373ffffffffffffffffffffffffffffffffffffffff1614610d8a5781600d5416341015610d8957600080fd5b5b6000600190505b828111610dc057610dad848284610da89190613771565b611e9a565b8080610db890613945565b915050610d91565b50505050565b610de183838360405180602001604052806000815250611577565b505050565b60606000610df383611174565b905060008167ffffffffffffffff811115610e1157610e10613aaa565b5b604051908082528060200260200182016040528015610e3f5781602001602082028036833780820191505090505b50905060005b82811015610e8957610e578582610b81565b828281518110610e6a57610e69613a7b565b5b6020026020010181815250508080610e8190613945565b915050610e45565b508092505050919050565b610e9c611a33565b73ffffffffffffffffffffffffffffffffffffffff16610eba61133a565b73ffffffffffffffffffffffffffffffffffffffff1614610f10576040517f08c379a0000000000000000000000000000000000000000000000000000000008152600401610f079061357e565b60405180910390fd5b80600d8190555050565b6000610f24610b0e565b8210610f65576040517f08c379a0000000000000000000000000000000000000000000000000000000008152600401610f5c9061361e565b60405180910390fd5b60088281548110610f7957610f78613a7b565b5b90600052602060002001549050919050565b610f93611a33565b73ffffffffffffffffffffffffffffffffffffffff16610fb161133a565b73ffffffffffffffffffffffffffffffffffffffff1614611007576040517f08c379a0000000000000000000000000000000000000000000000000000000008152600401610ffe9061357e565b60405180910390fd5b80600b908051906020019061101d929190612a11565b5050565b601060009054906101000a900460ff1681565b6000806002600084815260200190815260200160002060009054906101000a900473ffffffffffffffffffffffffffffffffffffffff169050600073ffffffffffffffffffffffffffffffffffffffff168173ffffffffffffffffffffffffffffffffffffffff1614156110dd576040517f08c379a00000000000000000000000000000000000000000000000000000000081526004016110d49061351e565b60405180910390fd5b80915050919050565b600b80546110f3906138e2565b80601f016020809104026020016040519081016040528092919081815260200182805461111f906138e2565b801561116c5780601f106111415761010080835404028352916020019161116c565b820191906000526020600020905b81548152906001019060200180831161114f57829003601f168201915b505050505081565b60008073ffffffffffffffffffffffffffffffffffffffff168273ffffffffffffffffffffffffffffffffffffffff1614156111e5576040517f08c379a00000000000000000000000000000000000000000000000000000000081526004016111dc906134fe565b60405180910390fd5b600360008373ffffffffffffffffffffffffffffffffffffffff1673ffffffffffffffffffffffffffffffffffffffff168152602001908152602001600020549050919050565b611234611a33565b73ffffffffffffffffffffffffffffffffffffffff1661125261133a565b73ffffffffffffffffffffffffffffffffffffffff16146112a8576040517f08c379a000000000000000000000000000000000000000000000000000000000815260040161129f9061357e565b60405180910390fd5b6112b26000611eb8565b565b6112bc611a33565b73ffffffffffffffffffffffffffffffffffffffff166112da61133a565b73ffffffffffffffffffffffffffffffffffffffff1614611330576040517f08c379a00000000000000000000000000000000000000000000000000000000081526004016113279061357e565b60405180910390fd5b80600f8190555050565b6000600a60009054906101000a900473ffffffffffffffffffffffffffffffffffffffff16905090565b606060018054611373906138e2565b80601f016020809104026020016040519081016040528092919081815260200182805461139f906138e2565b80156113ec5780601f106113c1576101008083540402835291602001916113ec565b820191906000526020600020905b8154815290600101906020018083116113cf57829003601f168201915b5050505050905090565b6113fe611a33565b73ffffffffffffffffffffffffffffffffffffffff168273ffffffffffffffffffffffffffffffffffffffff16141561146c576040517f08c379a00000000000000000000000000000000000000000000000000000000081526004016114639061349e565b60405180910390fd5b8060056000611479611a33565b73ffffffffffffffffffffffffffffffffffffffff1673ffffffffffffffffffffffffffffffffffffffff16815260200190815260200160002060008473ffffffffffffffffffffffffffffffffffffffff1673ffffffffffffffffffffffffffffffffffffffff16815260200190815260200160002060006101000a81548160ff0219169083151502179055508173ffffffffffffffffffffffffffffffffffffffff16611526611a33565b73ffffffffffffffffffffffffffffffffffffffff167f17307eab39ab6107e8899845ad3d59bd9653f200f220920489ca2b5937696c318360405161156b91906133c1565b60405180910390a35050565b611588611582611a33565b83611b60565b6115c7576040517f08c379a00000000000000000000000000000000000000000000000000000000081526004016115be906135fe565b60405180910390fd5b6115d384848484611f7e565b50505050565b600c80546115e6906138e2565b80601f0160208091040260200160405190810160405280929190818152602001828054611612906138e2565b801561165f5780601f106116345761010080835404028352916020019161165f565b820191906000526020600020905b81548152906001019060200180831161164257829003601f168201915b505050505081565b606061167282611a3b565b6116b1576040517f08c379a00000000000000000000000000000000000000000000000000000000081526004016116a8906135be565b60405180910390fd5b60006116bb611fda565b905060008151116116db5760405180602001604052806000815250611709565b806116e58461206c565b600c6040516020016116f993929190613307565b6040516020818303038152906040525b915050919050565b600e5481565b61171f611a33565b73ffffffffffffffffffffffffffffffffffffffff1661173d61133a565b73ffffffffffffffffffffffffffffffffffffffff1614611793576040517f08c379a000000000000000000000000000000000000000000000000000000000815260040161178a9061357e565b60405180910390fd5b80600c90805190602001906117a9929190612a11565b5050565b6000600560008473ffffffffffffffffffffffffffffffffffffffff1673ffffffffffffffffffffffffffffffffffffffff16815260200190815260200160002060008373ffffffffffffffffffffffffffffffffffffffff1673ffffffffffffffffffffffffffffffffffffffff16815260200190815260200160002060009054906101000a900460ff16905092915050565b611849611a33565b73ffffffffffffffffffffffffffffffffffffffff1661186761133a565b73ffffffffffffffffffffffffffffffffffffffff16146118bd576040517f08c379a00000000000000000000000000000000000000000000000000000000081526004016118b49061357e565b60405180910390fd5b600073ffffffffffffffffffffffffffffffffffffffff168173ffffffffffffffffffffffffffffffffffffffff16141561192d576040517f08c379a00000000000000000000000000000000000000000000000000000000081526004016119249061343e565b60405180910390fd5b61193681611eb8565b50565b600080823b905060008111915050919050565b505050565b60007f80ac58cd000000000000000000000000000000000000000000000000000000007bffffffffffffffffffffffffffffffffffffffffffffffffffffffff1916827bffffffffffffffffffffffffffffffffffffffffffffffffffffffff19161480611a1c57507f5b5e139f000000000000000000000000000000000000000000000000000000007bffffffffffffffffffffffffffffffffffffffffffffffffffffffff1916827bffffffffffffffffffffffffffffffffffffffffffffffffffffffff1916145b80611a2c5750611a2b826121cd565b5b9050919050565b600033905090565b60008073ffffffffffffffffffffffffffffffffffffffff166002600084815260200190815260200160002060009054906101000a900473ffffffffffffffffffffffffffffffffffffffff1673ffffffffffffffffffffffffffffffffffffffff1614159050919050565b816004600083815260200190815260200160002060006101000a81548173ffffffffffffffffffffffffffffffffffffffff021916908373ffffffffffffffffffffffffffffffffffffffff160217905550808273ffffffffffffffffffffffffffffffffffffffff16611b1a83611034565b73ffffffffffffffffffffffffffffffffffffffff167f8c5be1e5ebec7d5bd14f71427d1e84f3dd0314c0f7b2291e5b200ac8c7c3b92560405160405180910390a45050565b6000611b6b82611a3b565b611baa576040517f08c379a0000000000000000000000000000000000000000000000000000000008152600401611ba1906134be565b60405180910390fd5b6000611bb583611034565b90508073ffffffffffffffffffffffffffffffffffffffff168473ffffffffffffffffffffffffffffffffffffffff161480611c2457508373ffffffffffffffffffffffffffffffffffffffff16611c0c8461096b565b73ffffffffffffffffffffffffffffffffffffffff16145b80611c355750611c3481856117ad565b5b91505092915050565b8273ffffffffffffffffffffffffffffffffffffffff16611c5e82611034565b73ffffffffffffffffffffffffffffffffffffffff1614611cb4576040517f08c379a0000000000000000000000000000000000000000000000000000000008152600401611cab9061359e565b60405180910390fd5b600073ffffffffffffffffffffffffffffffffffffffff168273ffffffffffffffffffffffffffffffffffffffff161415611d24576040517f08c379a0000000000000000000000000000000000000000000000000000000008152600401611d1b9061347e565b60405180910390fd5b611d2f838383612237565b611d3a600082611aa7565b6001600360008573ffffffffffffffffffffffffffffffffffffffff1673ffffffffffffffffffffffffffffffffffffffff1681526020019081526020016000206000828254611d8a91906137f8565b925050819055506001600360008473ffffffffffffffffffffffffffffffffffffffff1673ffffffffffffffffffffffffffffffffffffffff1681526020019081526020016000206000828254611de19190613771565b92505081905550816002600083815260200190815260200160002060006101000a81548173ffffffffffffffffffffffffffffffffffffffff021916908373ffffffffffffffffffffffffffffffffffffffff160217905550808273ffffffffffffffffffffffffffffffffffffffff168473ffffffffffffffffffffffffffffffffffffffff167fddf252ad1be2c89b69c2b068fc378daa952ba7f163c4a11628f55a4df523b3ef60405160405180910390a4505050565b611eb482826040518060200160405280600081525061234b565b5050565b6000600a60009054906101000a900473ffffffffffffffffffffffffffffffffffffffff16905081600a60006101000a81548173ffffffffffffffffffffffffffffffffffffffff021916908373ffffffffffffffffffffffffffffffffffffffff1602179055508173ffffffffffffffffffffffffffffffffffffffff168173ffffffffffffffffffffffffffffffffffffffff167f8be0079c531659141344cd1fd0a4f28419497f9722a3daafe3b4186f6b6457e060405160405180910390a35050565b611f89848484611c3e565b611f95848484846123a6565b611fd4576040517f08c379a0000000000000000000000000000000000000000000000000000000008152600401611fcb9061341e565b60405180910390fd5b50505050565b6060600b8054611fe9906138e2565b80601f0160208091040260200160405190810160405280929190818152602001828054612015906138e2565b80156120625780601f1061203757610100808354040283529160200191612062565b820191906000526020600020905b81548152906001019060200180831161204557829003601f168201915b5050505050905090565b606060008214156120b4576040518060400160405280600181526020017f300000000000000000000000000000000000000000000000000000000000000081525090506121c8565b600082905060005b600082146120e65780806120cf90613945565b915050600a826120df91906137c7565b91506120bc565b60008167ffffffffffffffff81111561210257612101613aaa565b5b6040519080825280601f01601f1916602001820160405280156121345781602001600182028036833780820191505090505b5090505b600085146121c15760018261214d91906137f8565b9150600a8561215c919061398e565b60306121689190613771565b60f81b81838151811061217e5761217d613a7b565b5b60200101907effffffffffffffffffffffffffffffffffffffffffffffffffffffffffffff1916908160001a905350600a856121ba91906137c7565b9450612138565b8093505050505b919050565b60007f01ffc9a7000000000000000000000000000000000000000000000000000000007bffffffffffffffffffffffffffffffffffffffffffffffffffffffff1916827bffffffffffffffffffffffffffffffffffffffffffffffffffffffff1916149050919050565b61224283838361194c565b600073ffffffffffffffffffffffffffffffffffffffff168373ffffffffffffffffffffffffffffffffffffffff161415612285576122808161253d565b6122c4565b8173ffffffffffffffffffffffffffffffffffffffff168373ffffffffffffffffffffffffffffffffffffffff16146122c3576122c28382612586565b5b5b600073ffffffffffffffffffffffffffffffffffffffff168273ffffffffffffffffffffffffffffffffffffffff16141561230757612302816126f3565b612346565b8273ffffffffffffffffffffffffffffffffffffffff168273ffffffffffffffffffffffffffffffffffffffff16146123455761234482826127c4565b5b5b505050565b6123558383612843565b61236260008484846123a6565b6123a1576040517f08c379a00000000000000000000000000000000000000000000000000000000081526004016123989061341e565b60405180910390fd5b505050565b60006123c78473ffffffffffffffffffffffffffffffffffffffff16611939565b15612530578373ffffffffffffffffffffffffffffffffffffffff1663150b7a026123f0611a33565b8786866040518563ffffffff1660e01b81526004016124129493929190613353565b602060405180830381600087803b15801561242c57600080fd5b505af192505050801561245d57506040513d601f19601f8201168201806040525081019061245a9190612e1a565b60015b6124e0573d806000811461248d576040519150601f19603f3d011682016040523d82523d6000602084013e612492565b606091505b506000815114156124d8576040517f08c379a00000000000000000000000000000000000000000000000000000000081526004016124cf9061341e565b60405180910390fd5b805181602001fd5b63150b7a0260e01b7bffffffffffffffffffffffffffffffffffffffffffffffffffffffff1916817bffffffffffffffffffffffffffffffffffffffffffffffffffffffff191614915050612535565b600190505b949350505050565b6008805490506009600083815260200190815260200160002081905550600881908060018154018082558091505060019003906000526020600020016000909190919091505550565b6000600161259384611174565b61259d91906137f8565b9050600060076000848152602001908152602001600020549050818114612682576000600660008673ffffffffffffffffffffffffffffffffffffffff1673ffffffffffffffffffffffffffffffffffffffff168152602001908152602001600020600084815260200190815260200160002054905080600660008773ffffffffffffffffffffffffffffffffffffffff1673ffffffffffffffffffffffffffffffffffffffff168152602001908152602001600020600084815260200190815260200160002081905550816007600083815260200190815260200160002081905550505b6007600084815260200190815260200160002060009055600660008573ffffffffffffffffffffffffffffffffffffffff1673ffffffffffffffffffffffffffffffffffffffff16815260200190815260200160002060008381526020019081526020016000206000905550505050565b6000600160088054905061270791906137f8565b905060006009600084815260200190815260200160002054905060006008838154811061273757612736613a7b565b5b90600052602060002001549050806008838154811061275957612758613a7b565b5b9060005260206000200181905550816009600083815260200190815260200160002081905550600960008581526020019081526020016000206000905560088054806127a8576127a7613a4c565b5b6001900381819060005260206000200160009055905550505050565b60006127cf83611174565b905081600660008573ffffffffffffffffffffffffffffffffffffffff1673ffffffffffffffffffffffffffffffffffffffff168152602001908152602001600020600083815260200190815260200160002081905550806007600084815260200190815260200160002081905550505050565b600073ffffffffffffffffffffffffffffffffffffffff168273ffffffffffffffffffffffffffffffffffffffff1614156128b3576040517f08c379a00000000000000000000000000000000000000000000000000000000081526004016128aa9061353e565b60405180910390fd5b6128bc81611a3b565b156128fc576040517f08c379a00000000000000000000000000000000000000000000000000000000081526004016128f39061345e565b60405180910390fd5b61290860008383612237565b6001600360008473ffffffffffffffffffffffffffffffffffffffff1673ffffffffffffffffffffffffffffffffffffffff16815260200190815260200160002060008282546129589190613771565b92505081905550816002600083815260200190815260200160002060006101000a81548173ffffffffffffffffffffffffffffffffffffffff021916908373ffffffffffffffffffffffffffffffffffffffff160217905550808273ffffffffffffffffffffffffffffffffffffffff16600073ffffffffffffffffffffffffffffffffffffffff167fddf252ad1be2c89b69c2b068fc378daa952ba7f163c4a11628f55a4df523b3ef60405160405180910390a45050565b828054612a1d906138e2565b90600052602060002090601f016020900481019282612a3f5760008555612a86565b82601f10612a5857805160ff1916838001178555612a86565b82800160010185558215612a86579182015b82811115612a85578251825591602001919060010190612a6a565b5b509050612a939190612a97565b5090565b5b80821115612ab0576000816000905550600101612a98565b5090565b6000612ac7612ac28461367e565b613659565b905082815260208101848484011115612ae357612ae2613ade565b5b612aee8482856138a0565b509392505050565b6000612b09612b04846136af565b613659565b905082815260208101848484011115612b2557612b24613ade565b5b612b308482856138a0565b509392505050565b600081359050612b4781613ff4565b92915050565b600081359050612b5c8161400b565b92915050565b600081359050612b7181614022565b92915050565b600081519050612b8681614022565b92915050565b600082601f830112612ba157612ba0613ad9565b5b8135612bb1848260208601612ab4565b91505092915050565b600082601f830112612bcf57612bce613ad9565b5b8135612bdf848260208601612af6565b91505092915050565b600081359050612bf781614039565b92915050565b600060208284031215612c1357612c12613ae8565b5b6000612c2184828501612b38565b91505092915050565b60008060408385031215612c4157612c40613ae8565b5b6000612c4f85828601612b38565b9250506020612c6085828601612b38565b9150509250929050565b600080600060608486031215612c8357612c82613ae8565b5b6000612c9186828701612b38565b9350506020612ca286828701612b38565b9250506040612cb386828701612be8565b9150509250925092565b60008060008060808587031215612cd757612cd6613ae8565b5b6000612ce587828801612b38565b9450506020612cf687828801612b38565b9350506040612d0787828801612be8565b925050606085013567ffffffffffffffff811115612d2857612d27613ae3565b5b612d3487828801612b8c565b91505092959194509250565b60008060408385031215612d5757612d56613ae8565b5b6000612d6585828601612b38565b9250506020612d7685828601612b4d565b9150509250929050565b60008060408385031215612d9757612d96613ae8565b5b6000612da585828601612b38565b9250506020612db685828601612be8565b9150509250929050565b600060208284031215612dd657612dd5613ae8565b5b6000612de484828501612b4d565b91505092915050565b600060208284031215612e0357612e02613ae8565b5b6000612e1184828501612b62565b91505092915050565b600060208284031215612e3057612e2f613ae8565b5b6000612e3e84828501612b77565b91505092915050565b600060208284031215612e5d57612e5c613ae8565b5b600082013567ffffffffffffffff811115612e7b57612e7a613ae3565b5b612e8784828501612bba565b91505092915050565b600060208284031215612ea657612ea5613ae8565b5b6000612eb484828501612be8565b91505092915050565b6000612ec983836132e9565b60208301905092915050565b612ede8161382c565b82525050565b6000612eef82613705565b612ef98185613733565b9350612f04836136e0565b8060005b83811015612f35578151612f1c8882612ebd565b9750612f2783613726565b925050600181019050612f08565b5085935050505092915050565b612f4b8161383e565b82525050565b6000612f5c82613710565b612f668185613744565b9350612f768185602086016138af565b612f7f81613aed565b840191505092915050565b6000612f958261371b565b612f9f8185613755565b9350612faf8185602086016138af565b612fb881613aed565b840191505092915050565b6000612fce8261371b565b612fd88185613766565b9350612fe88185602086016138af565b80840191505092915050565b60008154613001816138e2565b61300b8186613766565b9450600182166000811461302657600181146130375761306a565b60ff1983168652818601935061306a565b613040856136f0565b60005b8381101561306257815481890152600182019150602081019050613043565b838801955050505b50505092915050565b6000613080602b83613755565b915061308b82613afe565b604082019050919050565b60006130a3603283613755565b91506130ae82613b4d565b604082019050919050565b60006130c6602683613755565b91506130d182613b9c565b604082019050919050565b60006130e9601c83613755565b91506130f482613beb565b602082019050919050565b600061310c602483613755565b915061311782613c14565b604082019050919050565b600061312f601983613755565b915061313a82613c63565b602082019050919050565b6000613152602c83613755565b915061315d82613c8c565b604082019050919050565b6000613175603883613755565b915061318082613cdb565b604082019050919050565b6000613198602a83613755565b91506131a382613d2a565b604082019050919050565b60006131bb602983613755565b91506131c682613d79565b604082019050919050565b60006131de602083613755565b91506131e982613dc8565b602082019050919050565b6000613201602c83613755565b915061320c82613df1565b604082019050919050565b6000613224602083613755565b915061322f82613e40565b602082019050919050565b6000613247602983613755565b915061325282613e69565b604082019050919050565b600061326a602f83613755565b915061327582613eb8565b604082019050919050565b600061328d602183613755565b915061329882613f07565b604082019050919050565b60006132b0603183613755565b91506132bb82613f56565b604082019050919050565b60006132d3602c83613755565b91506132de82613fa5565b604082019050919050565b6132f281613896565b82525050565b61330181613896565b82525050565b60006133138286612fc3565b915061331f8285612fc3565b915061332b8284612ff4565b9150819050949350505050565b600060208201905061334d6000830184612ed5565b92915050565b60006080820190506133686000830187612ed5565b6133756020830186612ed5565b61338260408301856132f8565b81810360608301526133948184612f51565b905095945050505050565b600060208201905081810360008301526133b98184612ee4565b905092915050565b60006020820190506133d66000830184612f42565b92915050565b600060208201905081810360008301526133f68184612f8a565b905092915050565b6000602082019050818103600083015261341781613073565b9050919050565b6000602082019050818103600083015261343781613096565b9050919050565b60006020820190508181036000830152613457816130b9565b9050919050565b60006020820190508181036000830152613477816130dc565b9050919050565b60006020820190508181036000830152613497816130ff565b9050919050565b600060208201905081810360008301526134b781613122565b9050919050565b600060208201905081810360008301526134d781613145565b9050919050565b600060208201905081810360008301526134f781613168565b9050919050565b600060208201905081810360008301526135178161318b565b9050919050565b60006020820190508181036000830152613537816131ae565b9050919050565b60006020820190508181036000830152613557816131d1565b9050919050565b60006020820190508181036000830152613577816131f4565b9050919050565b6000602082019050818103600083015261359781613217565b9050919050565b600060208201905081810360008301526135b78161323a565b9050919050565b600060208201905081810360008301526135d78161325d565b9050919050565b600060208201905081810360008301526135f781613280565b9050919050565b60006020820190508181036000830152613617816132a3565b9050919050565b60006020820190508181036000830152613637816132c6565b9050919050565b600060208201905061365360008301846132f8565b92915050565b6000613663613674565b905061366f8282613914565b919050565b6000604051905090565b600067ffffffffffffffff82111561369957613698613aaa565b5b6136a282613aed565b9050602081019050919050565b600067ffffffffffffffff8211156136ca576136c9613aaa565b5b6136d382613aed565b9050602081019050919050565b6000819050602082019050919050565b60008190508160005260206000209050919050565b600081519050919050565b600081519050919050565b600081519050919050565b6000602082019050919050565b600082825260208201905092915050565b600082825260208201905092915050565b600082825260208201905092915050565b600081905092915050565b600061377c82613896565b915061378783613896565b9250827fffffffffffffffffffffffffffffffffffffffffffffffffffffffffffffffff038211156137bc576137bb6139bf565b5b828201905092915050565b60006137d282613896565b91506137dd83613896565b9250826137ed576137ec6139ee565b5b828204905092915050565b600061380382613896565b915061380e83613896565b925082821015613821576138206139bf565b5b828203905092915050565b600061383782613876565b9050919050565b60008115159050919050565b60007fffffffff0000000000000000000000000000000000000000000000000000000082169050919050565b600073ffffffffffffffffffffffffffffffffffffffff82169050919050565b6000819050919050565b82818337600083830152505050565b60005b838110156138cd5780820151818401526020810190506138b2565b838111156138dc576000848401525b50505050565b600060028204905060018216806138fa57607f821691505b6020821081141561390e5761390d613a1d565b5b50919050565b61391d82613aed565b810181811067ffffffffffffffff8211171561393c5761393b613aaa565b5b80604052505050565b600061395082613896565b91507fffffffffffffffffffffffffffffffffffffffffffffffffffffffffffffffff821415613983576139826139bf565b5b600182019050919050565b600061399982613896565b91506139a483613896565b9250826139b4576139b36139ee565b5b828206905092915050565b7f4e487b7100000000000000000000000000000000000000000000000000000000600052601160045260246000fd5b7f4e487b7100000000000000000000000000000000000000000000000000000000600052601260045260246000fd5b7f4e487b7100000000000000000000000000000000000000000000000000000000600052602260045260246000fd5b7f4e487b7100000000000000000000000000000000000000000000000000000000600052603160045260246000fd5b7f4e487b7100000000000000000000000000000000000000000000000000000000600052603260045260246000fd5b7f4e487b7100000000000000000000000000000000000000000000000000000000600052604160045260246000fd5b600080fd5b600080fd5b600080fd5b600080fd5b6000601f19601f8301169050919050565b7f455243373231456e756d657261626c653a206f776e657220696e646578206f7560008201527f74206f6620626f756e6473000000000000000000000000000000000000000000602082015250565b7f4552433732313a207472616e7366657220746f206e6f6e20455243373231526560008201527f63656976657220696d706c656d656e7465720000000000000000000000000000602082015250565b7f4f776e61626c653a206e6577206f776e657220697320746865207a65726f206160008201527f6464726573730000000000000000000000000000000000000000000000000000602082015250565b7f4552433732313a20746f6b656e20616c7265616479206d696e74656400000000600082015250565b7f4552433732313a207472616e7366657220746f20746865207a65726f2061646460008201527f7265737300000000000000000000000000000000000000000000000000000000602082015250565b7f4552433732313a20617070726f766520746f2063616c6c657200000000000000600082015250565b7f4552433732313a206f70657261746f7220717565727920666f72206e6f6e657860008201527f697374656e7420746f6b656e0000000000000000000000000000000000000000602082015250565b7f4552433732313a20617070726f76652063616c6c6572206973206e6f74206f7760008201527f6e6572206e6f7220617070726f76656420666f7220616c6c0000000000000000602082015250565b7f4552433732313a2062616c616e636520717565727920666f7220746865207a6560008201527f726f206164647265737300000000000000000000000000000000000000000000602082015250565b7f4552433732313a206f776e657220717565727920666f72206e6f6e657869737460008201527f656e7420746f6b656e0000000000000000000000000000000000000000000000602082015250565b7f4552433732313a206d696e7420746f20746865207a65726f2061646472657373600082015250565b7f4552433732313a20617070726f76656420717565727920666f72206e6f6e657860008201527f697374656e7420746f6b656e0000000000000000000000000000000000000000602082015250565b7f4f776e61626c653a2063616c6c6572206973206e6f7420746865206f776e6572600082015250565b7f4552433732313a207472616e73666572206f6620746f6b656e2074686174206960008201527f73206e6f74206f776e0000000000000000000000000000000000000000000000602082015250565b7f4552433732314d657461646174613a2055524920717565727920666f72206e6f60008201527f6e6578697374656e7420746f6b656e0000000000000000000000000000000000602082015250565b7f4552433732313a20617070726f76616c20746f2063757272656e74206f776e6560008201527f7200000000000000000000000000000000000000000000000000000000000000602082015250565b7f4552433732313a207472616e736665722063616c6c6572206973206e6f74206f60008201527f776e6572206e6f7220617070726f766564000000000000000000000000000000602082015250565b7f455243373231456e756d657261626c653a20676c6f62616c20696e646578206f60008201527f7574206f6620626f756e64730000000000000000000000000000000000000000602082015250565b613ffd8161382c565b811461400857600080fd5b50565b6140148161383e565b811461401f57600080fd5b50565b61402b8161384a565b811461403657600080fd5b50565b61404281613896565b811461404d57600080fd5b5056fea2646970667358221220157d8b312c5176b6277b71f33dcb583a6e7d70ff4166f8336522cb361e871edb64736f6c63430008070033",
  "immutableReferences": {},
  "source": "// SPDX-License-Identifier: GPL-3.0\npragma solidity ^0.8.7;\n\nimport \"@openzeppelin/contracts/token/ERC721/extensions/ERC721Enumerable.sol\";\nimport \"@openzeppelin/contracts/access/Ownable.sol\";\n\ncontract NftTest is ERC721Enumerable, Ownable {\n    using Strings for uint256;\n\n    string public baseURI;\n    string public baseExtension = \".json\";\n    uint256 public cost = 0.02 ether;\n    uint256 public maxSupply = 10000;\n    uint256 public maxMintAmount = 10;\n    bool public paused = false;\n\n    constructor(\n        string memory _name,\n        string memory _symbol,\n        string memory _initBaseURI\n    ) ERC721(_name, _symbol) {\n        setBaseURI(_initBaseURI);\n        mint(msg.sender, 10);\n    }\n\n    // internal\n    function _baseURI() internal view virtual override returns (string memory) {\n        return baseURI;\n    }\n\n    // public\n    function mint(address _to, uint256 _mintAmount) public payable {\n        uint256 supply = totalSupply();\n        require(!paused);\n        require(_mintAmount > 0);\n        require(_mintAmount <= maxMintAmount);\n        require(supply + _mintAmount <= maxSupply);\n\n        if (msg.sender != owner()) {\n            require(msg.value >= cost & _mintAmount);\n        }\n\n        for (uint256 i = 1; i <= _mintAmount; i++) {\n            _safeMint(_to, supply + i);\n        }\n    }\n\n    function walletOfOwner(address _owner)\n        public\n        view\n        returns (uint256[] memory)\n    {\n        uint256 ownerTokenCount = balanceOf(_owner);\n        uint256[] memory tokenIds = new uint256[](ownerTokenCount);\n        for (uint256 i; i < ownerTokenCount; i++) {\n            tokenIds[i] = tokenOfOwnerByIndex(_owner, i);\n        }\n        return tokenIds;\n    }\n\n    function tokenURI(uint256 tokenId)\n        public\n        view\n        virtual\n        override\n        returns (string memory)\n    {\n        require(\n            _exists(tokenId),\n            \"ERC721Metadata: URI query for nonexistent token\"\n        );\n\n        string memory currentBaseURI = _baseURI();\n        return\n            bytes(currentBaseURI).length > 0\n                ? string(\n                    abi.encodePacked(\n                        currentBaseURI,\n                        tokenId.toString(),\n                        baseExtension\n                    )\n                )\n                : \"\";\n    }\n\n    //only owner\n    function setCost(uint256 _newCost) public onlyOwner {\n        cost = _newCost;\n    }\n\n    function setmaxMintAmount(uint256 _newmaxMintAmount) public onlyOwner {\n        maxMintAmount = _newmaxMintAmount;\n    }\n\n    function setBaseURI(string memory _newBaseURI) public onlyOwner {\n        baseURI = _newBaseURI;\n    }\n\n    function setBaseExtension(string memory _newBaseExtension)\n        public\n        onlyOwner\n    {\n        baseExtension = _newBaseExtension;\n    }\n\n    function pause(bool _state) public onlyOwner {\n        paused = _state;\n    }\n\n    function withdraw() public payable onlyOwner {\n        require(payable(msg.sender).send(address(this).balance));\n    }\n}\n",
  "sourcePath": "/Users/mac/Documents/contracts/generative-art-opensource/contracts/NftTest.sol",
  "compiler": {
    "name": "solc",
    "version": "0.8.7+commit.e28d00a7.Emscripten.clang"
  },
  "schemaVersion": "3.4.3",
  "updatedAt": "2021-09-26T11:30:58.016Z",
  "networkType": "ethereum",
  "devdoc": {
    "kind": "dev",
    "methods": {
      "approve(address,uint256)": {
        "details": "See {IERC721-approve}."
      },
      "balanceOf(address)": {
        "details": "See {IERC721-balanceOf}."
      },
      "getApproved(uint256)": {
        "details": "See {IERC721-getApproved}."
      },
      "isApprovedForAll(address,address)": {
        "details": "See {IERC721-isApprovedForAll}."
      },
      "name()": {
        "details": "See {IERC721Metadata-name}."
      },
      "owner()": {
        "details": "Returns the address of the current owner."
      },
      "ownerOf(uint256)": {
        "details": "See {IERC721-ownerOf}."
      },
      "renounceOwnership()": {
        "details": "Leaves the contract without owner. It will not be possible to call `onlyOwner` functions anymore. Can only be called by the current owner. NOTE: Renouncing ownership will leave the contract without an owner, thereby removing any functionality that is only available to the owner."
      },
      "safeTransferFrom(address,address,uint256)": {
        "details": "See {IERC721-safeTransferFrom}."
      },
      "safeTransferFrom(address,address,uint256,bytes)": {
        "details": "See {IERC721-safeTransferFrom}."
      },
      "setApprovalForAll(address,bool)": {
        "details": "See {IERC721-setApprovalForAll}."
      },
      "supportsInterface(bytes4)": {
        "details": "See {IERC165-supportsInterface}."
      },
      "symbol()": {
        "details": "See {IERC721Metadata-symbol}."
      },
      "tokenByIndex(uint256)": {
        "details": "See {IERC721Enumerable-tokenByIndex}."
      },
      "tokenOfOwnerByIndex(address,uint256)": {
        "details": "See {IERC721Enumerable-tokenOfOwnerByIndex}."
      },
      "tokenURI(uint256)": {
        "details": "See {IERC721Metadata-tokenURI}."
      },
      "totalSupply()": {
        "details": "See {IERC721Enumerable-totalSupply}."
      },
      "transferFrom(address,address,uint256)": {
        "details": "See {IERC721-transferFrom}."
      },
      "transferOwnership(address)": {
        "details": "Transfers ownership of the contract to a new account (`newOwner`). Can only be called by the current owner."
      }
    },
    "version": 1
  },
  "userdoc": {
    "kind": "user",
    "methods": {},
    "version": 1
  }
}